{
  "_format": "hh-sol-artifact-1",
  "contractName": "TweetPrediction",
  "sourceName": "contracts/TweetPrediction.sol",
  "abi": [
    {
      "inputs": [
        {
          "internalType": "string",
          "name": "tweetId",
          "type": "string"
        }
      ],
      "name": "claimRewards",
      "outputs": [],
      "stateMutability": "nonpayable",
      "type": "function"
    },
    {
      "inputs": [
        {
          "internalType": "string",
          "name": "tweetId",
          "type": "string"
        }
      ],
      "name": "invest",
      "outputs": [],
      "stateMutability": "payable",
      "type": "function"
    },
    {
      "inputs": [
        {
          "internalType": "string",
          "name": "",
          "type": "string"
        }
      ],
      "name": "pools",
      "outputs": [
        {
          "internalType": "uint256",
          "name": "totalFunds",
          "type": "uint256"
        },
        {
          "internalType": "bool",
          "name": "resolved",
          "type": "bool"
        },
        {
          "internalType": "uint256",
          "name": "payoutAmount",
          "type": "uint256"
        }
      ],
      "stateMutability": "view",
      "type": "function"
    },
    {
      "inputs": [
        {
          "internalType": "string",
          "name": "tweetId",
          "type": "string"
        },
        {
          "internalType": "uint256",
          "name": "engagementScore",
          "type": "uint256"
        }
      ],
      "name": "resolvePool",
      "outputs": [],
      "stateMutability": "nonpayable",
      "type": "function"
    }
  ],
  "bytecode": "0x6080604052348015600f57600080fd5b506109e08061001f6000396000f3fe60806040526004361061003f5760003560e01c80630a8b7826146100445780633f4b0502146100605780639d6f17a814610089578063d0021233146100c8575b600080fd5b61005e6004803603810190610059919061058c565b6100f1565b005b34801561006c57600080fd5b506100876004803603810190610082919061058c565b6101cc565b005b34801561009557600080fd5b506100b060048036038101906100ab919061058c565b610335565b6040516100bf93929190610609565b60405180910390f35b3480156100d457600080fd5b506100ef60048036038101906100ea919061066c565b610382565b005b60003411610134576040517f08c379a000000000000000000000000000000000000000000000000000000000815260040161012b90610725565b60405180910390fd5b6000808260405161014591906107b6565b908152602001604051809103902090503481600001600082825461016991906107fc565b92505081905550348160010160003373ffffffffffffffffffffffffffffffffffffffff1673ffffffffffffffffffffffffffffffffffffffff16815260200190815260200160002060008282546101c191906107fc565b925050819055505050565b600080826040516101dd91906107b6565b908152602001604051809103902090508060020160009054906101000a900460ff1661023e576040517f08c379a00000000000000000000000000000000000000000000000000000000081526004016102359061087c565b60405180910390fd5b6000816000015482600301548360010160003373ffffffffffffffffffffffffffffffffffffffff1673ffffffffffffffffffffffffffffffffffffffff16815260200190815260200160002054610296919061089c565b6102a0919061090d565b905060008260010160003373ffffffffffffffffffffffffffffffffffffffff1673ffffffffffffffffffffffffffffffffffffffff168152602001908152602001600020819055503373ffffffffffffffffffffffffffffffffffffffff166108fc829081150290604051600060405180830381858888f1935050505015801561032f573d6000803e3d6000fd5b50505050565b6000818051602081018201805184825260208301602085012081835280955050505050506000915090508060000154908060020160009054906101000a900460ff16908060030154905083565b6000808360405161039391906107b6565b908152602001604051809103902090508060020160009054906101000a900460ff16156103f5576040517f08c379a00000000000000000000000000000000000000000000000000000000081526004016103ec9061098a565b60405180910390fd5b66038d7ea4c6800082610408919061089c565b816003018190555060018160020160006101000a81548160ff021916908315150217905550505050565b6000604051905090565b600080fd5b600080fd5b600080fd5b600080fd5b6000601f19601f8301169050919050565b7f4e487b7100000000000000000000000000000000000000000000000000000000600052604160045260246000fd5b61049982610450565b810181811067ffffffffffffffff821117156104b8576104b7610461565b5b80604052505050565b60006104cb610432565b90506104d78282610490565b919050565b600067ffffffffffffffff8211156104f7576104f6610461565b5b61050082610450565b9050602081019050919050565b82818337600083830152505050565b600061052f61052a846104dc565b6104c1565b90508281526020810184848401111561054b5761054a61044b565b5b61055684828561050d565b509392505050565b600082601f83011261057357610572610446565b5b813561058384826020860161051c565b91505092915050565b6000602082840312156105a2576105a161043c565b5b600082013567ffffffffffffffff8111156105c0576105bf610441565b5b6105cc8482850161055e565b91505092915050565b6000819050919050565b6105e8816105d5565b82525050565b60008115159050919050565b610603816105ee565b82525050565b600060608201905061061e60008301866105df565b61062b60208301856105fa565b61063860408301846105df565b949350505050565b610649816105d5565b811461065457600080fd5b50565b60008135905061066681610640565b92915050565b600080604083850312156106835761068261043c565b5b600083013567ffffffffffffffff8111156106a1576106a0610441565b5b6106ad8582860161055e565b92505060206106be85828601610657565b9150509250929050565b600082825260208201905092915050565b7f4d7573742073656e642066756e647320746f20696e766573742e000000000000600082015250565b600061070f601a836106c8565b915061071a826106d9565b602082019050919050565b6000602082019050818103600083015261073e81610702565b9050919050565b600081519050919050565b600081905092915050565b60005b8381101561077957808201518184015260208101905061075e565b60008484015250505050565b600061079082610745565b61079a8185610750565b93506107aa81856020860161075b565b80840191505092915050565b60006107c28284610785565b915081905092915050565b7f4e487b7100000000000000000000000000000000000000000000000000000000600052601160045260246000fd5b6000610807826105d5565b9150610812836105d5565b925082820190508082111561082a576108296107cd565b5b92915050565b7f506f6f6c206e6f74207265736f6c766564207965742e00000000000000000000600082015250565b60006108666016836106c8565b915061087182610830565b602082019050919050565b6000602082019050818103600083015261089581610859565b9050919050565b60006108a7826105d5565b91506108b2836105d5565b92508282026108c0816105d5565b915082820484148315176108d7576108d66107cd565b5b5092915050565b7f4e487b7100000000000000000000000000000000000000000000000000000000600052601260045260246000fd5b6000610918826105d5565b9150610923836105d5565b925082610933576109326108de565b5b828204905092915050565b7f506f6f6c20616c7265616479207265736f6c7665642e00000000000000000000600082015250565b60006109746016836106c8565b915061097f8261093e565b602082019050919050565b600060208201905081810360008301526109a381610967565b905091905056fea264697066735822122095af47b8bfe5eec6e48c82df978b19d9be6a01bb338f07963955b2fdda21506464736f6c634300081b0033",
  "linkReferences": {},
  "deployedLinkReferences": {}
}